{
  "contractName": "Election",
  "abi": [
    {
      "constant": true,
      "inputs": [],
      "name": "candidatesCount",
      "outputs": [
        {
          "name": "",
          "type": "uint256"
        }
      ],
      "payable": false,
      "stateMutability": "view",
      "type": "function",
      "signature": "0x2d35a8a2"
    },
    {
      "constant": true,
      "inputs": [
        {
          "name": "",
          "type": "uint256"
        }
      ],
      "name": "candidates",
      "outputs": [
        {
          "name": "id",
          "type": "uint256"
        },
        {
          "name": "name",
          "type": "string"
        },
        {
          "name": "voteCount",
          "type": "uint256"
        }
      ],
      "payable": false,
      "stateMutability": "view",
      "type": "function",
      "signature": "0x3477ee2e"
    },
    {
      "inputs": [],
      "payable": false,
      "stateMutability": "nonpayable",
      "type": "constructor",
      "signature": "constructor"
    }
  ],
  "bytecode": "0x608060405234801561001057600080fd5b5061005e6040805190810160405280600b81526020017f43616e64696461746520310000000000000000000000000000000000000000008152506100b0640100000000026401000000009004565b6100ab6040805190810160405280600b81526020017f43616e64696461746520320000000000000000000000000000000000000000008152506100b0640100000000026401000000009004565b6101d1565b60016000815480929190600101919050555060606040519081016040528060015481526020018281526020016000815250600080600154815260200190815260200160002060008201518160000155602082015181600101908051906020019061011b92919061012c565b506040820151816002015590505050565b828054600181600116156101000203166002900490600052602060002090601f016020900481019282601f1061016d57805160ff191683800117855561019b565b8280016001018555821561019b579182015b8281111561019a57825182559160200191906001019061017f565b5b5090506101a891906101ac565b5090565b6101ce91905b808211156101ca5760008160009055506001016101b2565b5090565b90565b610232806101e06000396000f3fe60806040526004361061004c576000357c0100000000000000000000000000000000000000000000000000000000900463ffffffff1680632d35a8a2146100515780633477ee2e1461007c575b600080fd5b34801561005d57600080fd5b5061006661013e565b6040518082815260200191505060405180910390f35b34801561008857600080fd5b506100b56004803603602081101561009f57600080fd5b8101908080359060200190929190505050610144565b6040518084815260200180602001838152602001828103825284818151815260200191508051906020019080838360005b838110156101015780820151818401526020810190506100e6565b50505050905090810190601f16801561012e5780820380516001836020036101000a031916815260200191505b5094505050505060405180910390f35b60015481565b6000602052806000526040600020600091509050806000015490806001018054600181600116156101000203166002900480601f0160208091040260200160405190810160405280929190818152602001828054600181600116156101000203166002900480156101f65780601f106101cb576101008083540402835291602001916101f6565b820191906000526020600020905b8154815290600101906020018083116101d957829003601f168201915b505050505090806002015490508356fea165627a7a72305820170d3cc2a4e17eec227071c24867c260f19373b39ee469308af77744870e8cbc0029",
  "source": "pragma solidity 0.5.0;\r\n// Welp this tutorial is using an old version of solidity and lots of things are different!  This'll be fun\r\n\r\ncontract Election {\r\n    struct Candidate {\r\n        uint id;\r\n        string name;\r\n        uint voteCount;\r\n    }\r\n    //State variables allow us to write data to the blockchain\r\n    // It's public so solidity gives us a built-in getter\r\n\r\n    // Read/write candidate\r\n    mapping(uint => Candidate) public candidates;\r\n    // Id based look up for each candidate?\r\n    // This writes data to the blockchain any time we assign a new key-value pair to it\r\n\r\n    uint public candidatesCount;\r\n    // You CAN'T iterate over a mapping, so you need to keep track externally\r\n\r\n    function addCandidate (string memory _name) private {\r\n        candidatesCount ++;\r\n        candidates[candidatesCount] = Candidate(candidatesCount, _name, 0);\r\n    }\r\n    // This is in memory because it's just a temporary thing.  We would say storage if we wanted it written to the blockchain.\r\n    // For this though, just a temporary parameter so we should be good \r\n\r\n    //Constructor\r\n    constructor() public {\r\n        addCandidate(\"Candidate 1\");\r\n        addCandidate(\"Candidate 2\");\r\n    }\r\n\r\n}\r\n\r\n// truffle console\r\n// Election.deployed().then(function(i) {app = i})\r\n// app.candidates()\r\n    // That expects a key.  Pass it 1 or 2.\r\n    // If you pass it something wrong, it gives a default value\r\n// app.candidatesCount()\r\n// app.candidates(1).then(function(c) {candidate = c;})\r\n// candidate\r\n// Then index it's stuff with [0] or ['id]\r\n// And can do stuff like .toNumber() to get better data",
  "sourcePath": "C:/Users/Troy/Documents/Projects/QHacks2019/QHacks-2019/solidityLearn/contracts/Election.sol",
  "compiler": {
    "name": "solc",
    "version": "0.5.0+commit.1d4f565a.Emscripten.clang"
  },
  "schemaVersion": "3.0.1",
  "updatedAt": "2019-02-02T17:48:23.027Z",
  "devdoc": {
    "methods": {}
  },
  "userdoc": {
    "methods": {}
  }
}