{
  "contractName": "SharedAssets",
  "abi": [
    {
      "constant": true,
      "inputs": [],
      "name": "assetCount",
      "outputs": [
        {
          "name": "",
          "type": "uint32"
        }
      ],
      "payable": false,
      "stateMutability": "view",
      "type": "function",
      "signature": "0xeafe7a74"
    },
    {
      "constant": true,
      "inputs": [
        {
          "name": "",
          "type": "uint32"
        }
      ],
      "name": "assets",
      "outputs": [
        {
          "name": "id",
          "type": "uint32"
        },
        {
          "name": "name",
          "type": "string"
        },
        {
          "name": "cost",
          "type": "uint256"
        },
        {
          "name": "hasOut",
          "type": "address"
        },
        {
          "name": "checkTime",
          "type": "uint64"
        }
      ],
      "payable": false,
      "stateMutability": "view",
      "type": "function",
      "signature": "0xf8a80dc8"
    },
    {
      "inputs": [],
      "payable": false,
      "stateMutability": "nonpayable",
      "type": "constructor",
      "signature": "constructor"
    },
    {
      "payable": true,
      "stateMutability": "payable",
      "type": "fallback"
    },
    {
      "anonymous": false,
      "inputs": [],
      "name": "changedEvent",
      "type": "event",
      "signature": "0x9867e440db459519e56075792d88d9f393e8031ee5c4fa1f0ad100fbb700d222"
    },
    {
      "constant": false,
      "inputs": [
        {
          "name": "_asset",
          "type": "uint32"
        },
        {
          "name": "_time",
          "type": "uint64"
        }
      ],
      "name": "checkOutAsset",
      "outputs": [],
      "payable": true,
      "stateMutability": "payable",
      "type": "function",
      "signature": "0x5fef77d6"
    },
    {
      "constant": false,
      "inputs": [
        {
          "name": "_asset",
          "type": "uint32"
        },
        {
          "name": "_time",
          "type": "uint64"
        }
      ],
      "name": "checkInAsset",
      "outputs": [],
      "payable": false,
      "stateMutability": "nonpayable",
      "type": "function",
      "signature": "0x84a3e2dc"
    }
  ],
  "bytecode": "0x608060405234801561001057600080fd5b506100676040805190810160405280600681526020017f56616375756d0000000000000000000000000000000000000000000000000000815250670de0b6b3a764000061006c640100000000026401000000009004565b6102a9565b6001600081819054906101000a900463ffffffff168092919060010191906101000a81548163ffffffff021916908363ffffffff1602179055505060a060405190810160405280600160009054906101000a900463ffffffff1663ffffffff168152602001838152602001828152602001600073ffffffffffffffffffffffffffffffffffffffff168152602001600067ffffffffffffffff16815250600080600160009054906101000a900463ffffffff1663ffffffff1663ffffffff16815260200190815260200160002060008201518160000160006101000a81548163ffffffff021916908363ffffffff160217905550602082015181600101908051906020019061017c929190610204565b506040820151816002015560608201518160030160006101000a81548173ffffffffffffffffffffffffffffffffffffffff021916908373ffffffffffffffffffffffffffffffffffffffff16021790555060808201518160030160146101000a81548167ffffffffffffffff021916908367ffffffffffffffff1602179055509050505050565b828054600181600116156101000203166002900490600052602060002090601f016020900481019282601f1061024557805160ff1916838001178555610273565b82800160010185558215610273579182015b82811115610272578251825591602001919060010190610257565b5b5090506102809190610284565b5090565b6102a691905b808211156102a257600081600090555060010161028a565b5090565b90565b610809806102b86000396000f3fe608060405260043610610062576000357c0100000000000000000000000000000000000000000000000000000000900463ffffffff1680635fef77d61461006457806384a3e2dc146100ac578063eafe7a7414610101578063f8a80dc814610138575b005b6100aa6004803603604081101561007a57600080fd5b81019080803563ffffffff169060200190929190803567ffffffffffffffff16906020019092919050505061025a565b005b3480156100b857600080fd5b506100ff600480360360408110156100cf57600080fd5b81019080803563ffffffff169060200190929190803567ffffffffffffffff169060200190929190505050610488565b005b34801561010d57600080fd5b506101166106b5565b604051808263ffffffff1663ffffffff16815260200191505060405180910390f35b34801561014457600080fd5b506101776004803603602081101561015b57600080fd5b81019080803563ffffffff1690602001909291905050506106cb565b604051808663ffffffff1663ffffffff168152602001806020018581526020018473ffffffffffffffffffffffffffffffffffffffff1673ffffffffffffffffffffffffffffffffffffffff1681526020018367ffffffffffffffff1667ffffffffffffffff168152602001828103825286818151815260200191508051906020019080838360005b8381101561021b578082015181840152602081019050610200565b50505050905090810190601f1680156102485780820380516001836020036101000a031916815260200191505b50965050505050505060405180910390f35b60008263ffffffff1611801561028e5750600160009054906101000a900463ffffffff1663ffffffff168263ffffffff1611155b151561029957600080fd5b600073ffffffffffffffffffffffffffffffffffffffff166000808463ffffffff1663ffffffff16815260200190815260200160002060030160009054906101000a900473ffffffffffffffffffffffffffffffffffffffff1673ffffffffffffffffffffffffffffffffffffffff1614151561031557600080fd5b8067ffffffffffffffff166000808463ffffffff1663ffffffff16815260200190815260200160002060030160149054906101000a900467ffffffffffffffff1667ffffffffffffffff161080156103765750428167ffffffffffffffff16105b151561038157600080fd5b6000808363ffffffff1663ffffffff16815260200190815260200160002060020154341415156103b057600080fd5b336000808463ffffffff1663ffffffff16815260200190815260200160002060030160006101000a81548173ffffffffffffffffffffffffffffffffffffffff021916908373ffffffffffffffffffffffffffffffffffffffff160217905550806000808463ffffffff1663ffffffff16815260200190815260200160002060030160146101000a81548167ffffffffffffffff021916908367ffffffffffffffff1602179055507f9867e440db459519e56075792d88d9f393e8031ee5c4fa1f0ad100fbb700d22260405160405180910390a15050565b60008263ffffffff161180156104bc5750600160009054906101000a900463ffffffff1663ffffffff168263ffffffff1611155b15156104c757600080fd5b8067ffffffffffffffff166000808463ffffffff1663ffffffff16815260200190815260200160002060030160149054906101000a900467ffffffffffffffff1667ffffffffffffffff161080156105285750428167ffffffffffffffff16105b151561053357600080fd5b6000808363ffffffff1663ffffffff16815260200190815260200160002060030160009054906101000a900473ffffffffffffffffffffffffffffffffffffffff1673ffffffffffffffffffffffffffffffffffffffff166108fc6000808563ffffffff1663ffffffff168152602001908152602001600020600201549081150290604051600060405180830381858888f193505050501580156105db573d6000803e3d6000fd5b5060008060008463ffffffff1663ffffffff16815260200190815260200160002060030160006101000a81548173ffffffffffffffffffffffffffffffffffffffff021916908373ffffffffffffffffffffffffffffffffffffffff160217905550806000808463ffffffff1663ffffffff16815260200190815260200160002060030160146101000a81548167ffffffffffffffff021916908367ffffffffffffffff1602179055507f9867e440db459519e56075792d88d9f393e8031ee5c4fa1f0ad100fbb700d22260405160405180910390a15050565b600160009054906101000a900463ffffffff1681565b60006020528060005260406000206000915090508060000160009054906101000a900463ffffffff1690806001018054600181600116156101000203166002900480601f01602080910402602001604051908101604052809291908181526020018280546001816001161561010002031660029004801561078d5780601f106107625761010080835404028352916020019161078d565b820191906000526020600020905b81548152906001019060200180831161077057829003601f168201915b5050505050908060020154908060030160009054906101000a900473ffffffffffffffffffffffffffffffffffffffff16908060030160149054906101000a900467ffffffffffffffff1690508556fea165627a7a723058206620b7379610739c402bb34f7f4ff94726705f8d1b5704bd4fe54b82c153230d0029",
  "source": "pragma solidity ^0.5.0;\r\n\r\ncontract SharedAssets {\r\n    struct Asset {\r\n        uint32 id;\r\n        string name;\r\n        uint cost;\r\n        address payable hasOut;\r\n        uint64 checkTime;\r\n    }\r\n\r\n    mapping (uint32 => Asset) public assets;\r\n\r\n    uint32 public assetCount;\r\n\r\n    function addAsset (string memory _name, uint _cost) private {\r\n        assetCount ++;\r\n        assets[assetCount] = Asset(assetCount, _name, _cost, address(0), 0);\r\n        //Should set time to the current blocktime or something\r\n    }\r\n\r\n    function checkOutAsset (uint32 _asset, uint64 _time) payable public {\r\n        // Check asset number\r\n        require(_asset > 0 && _asset <= assetCount);\r\n\r\n        // Ensure that the asset is checked in (i.e. checked out by the null address)\r\n        require(assets[_asset].hasOut == address(0));\r\n\r\n        // Ensure the time makes sense\r\n        require(assets[_asset].checkTime < _time && _time < block.timestamp);\r\n        // Blockchains can't have secure timestamps!  But this works well enough for us...\r\n        // We pass in a time parameter as opposed to just using block.timestamp, under the assumption that the lock (executing this function) knows the time at least slightly better than the blockchain\r\n\r\n        // TODO: Handle payment??!!\r\n        require(msg.value == assets[_asset].cost);\r\n\r\n        // Actually do the thing\r\n        assets[_asset].hasOut = msg.sender;\r\n        assets[_asset].checkTime = _time;\r\n\r\n        emit changedEvent();\r\n    }\r\n\r\n    function checkInAsset (uint32 _asset, uint64 _time) public {\r\n        // Check asset number\r\n        require(_asset > 0 && _asset <= assetCount);\r\n\r\n        // Ensure that the asset is checked out by the person checking it in\r\n        //require(assets[_asset].hasOut == msg.sender);\r\n\r\n        // ensure time makes sense\r\n        require(assets[_asset].checkTime < _time && _time < block.timestamp);\r\n\r\n        // TODO: payment\r\n        assets[_asset].hasOut.transfer(assets[_asset].cost);       // For now this just gives the money back\r\n        // What about gas though...\r\n\r\n        assets[_asset].hasOut = address(0);\r\n        assets[_asset].checkTime = _time;\r\n        \r\n        emit changedEvent();\r\n    }\r\n\r\n    function() external payable {\r\n        //Falback\r\n    }\r\n\r\n    event changedEvent (); //Do nothing, just to be listened for\r\n\r\n    constructor() public {\r\n        addAsset(\"Vacuum\", 1 ether);\r\n    }\r\n\r\n}\r\n\r\n\r\n",
  "sourcePath": "C:/Users/Troy/Documents/Projects/QHacks2019/QHacks-2019/solidityLearn/contracts/SharedAssets.sol",
  "compiler": {
    "name": "solc",
    "version": "0.5.0+commit.1d4f565a.Emscripten.clang"
  },
  "schemaVersion": "3.0.1",
  "updatedAt": "2019-02-03T00:35:24.397Z",
  "devdoc": {
    "methods": {}
  },
  "userdoc": {
    "methods": {}
  }
}