{
  "contractName": "SharedAssets",
  "abi": [
    {
      "constant": true,
      "inputs": [
        {
          "name": "",
          "type": "uint256"
        }
      ],
      "name": "assets",
      "outputs": [
        {
          "name": "id",
          "type": "uint32"
        },
        {
          "name": "name",
          "type": "string"
        },
        {
          "name": "hasOut",
          "type": "address"
        },
        {
          "name": "checkTime",
          "type": "uint64"
        }
      ],
      "payable": false,
      "stateMutability": "view",
      "type": "function"
    },
    {
      "constant": true,
      "inputs": [],
      "name": "assetCount",
      "outputs": [
        {
          "name": "",
          "type": "uint32"
        }
      ],
      "payable": false,
      "stateMutability": "view",
      "type": "function"
    },
    {
      "inputs": [],
      "payable": false,
      "stateMutability": "nonpayable",
      "type": "constructor"
    },
    {
      "constant": false,
      "inputs": [
        {
          "name": "_asset",
          "type": "uint256"
        },
        {
          "name": "_time",
          "type": "uint64"
        }
      ],
      "name": "checkOutAsset",
      "outputs": [],
      "payable": false,
      "stateMutability": "nonpayable",
      "type": "function"
    },
    {
      "constant": false,
      "inputs": [
        {
          "name": "_asset",
          "type": "uint32"
        },
        {
          "name": "_time",
          "type": "uint64"
        }
      ],
      "name": "checkInAsset",
      "outputs": [],
      "payable": false,
      "stateMutability": "nonpayable",
      "type": "function"
    }
  ],
  "bytecode": "0x608060405234801561001057600080fd5b506106f7806100206000396000f3fe608060405260043610610062576000357c0100000000000000000000000000000000000000000000000000000000900463ffffffff1680630b31ec731461006757806384a3e2dc146100b6578063cf35bdd01461010b578063eafe7a7414610220575b600080fd5b34801561007357600080fd5b506100b46004803603604081101561008a57600080fd5b8101908080359060200190929190803567ffffffffffffffff169060200190929190505050610257565b005b3480156100c257600080fd5b50610109600480360360408110156100d957600080fd5b81019080803563ffffffff169060200190929190803567ffffffffffffffff1690602001909291905050506103ee565b005b34801561011757600080fd5b506101446004803603602081101561012e57600080fd5b81019080803590602001909291905050506105a9565b604051808563ffffffff1663ffffffff168152602001806020018473ffffffffffffffffffffffffffffffffffffffff1673ffffffffffffffffffffffffffffffffffffffff1681526020018367ffffffffffffffff1667ffffffffffffffff168152602001828103825285818151815260200191508051906020019080838360005b838110156101e25780820151818401526020810190506101c7565b50505050905090810190601f16801561020f5780820380516001836020036101000a031916815260200191505b509550505050505060405180910390f35b34801561022c57600080fd5b506102356106b5565b604051808263ffffffff1663ffffffff16815260200191505060405180910390f35b60008211801561027f5750600160009054906101000a900463ffffffff1663ffffffff168211155b151561028a57600080fd5b600073ffffffffffffffffffffffffffffffffffffffff1660008084815260200190815260200160002060020160009054906101000a900473ffffffffffffffffffffffffffffffffffffffff1673ffffffffffffffffffffffffffffffffffffffff161415156102fa57600080fd5b8067ffffffffffffffff1660008084815260200190815260200160002060020160149054906101000a900467ffffffffffffffff1667ffffffffffffffff1610801561034f5750428167ffffffffffffffff16105b151561035a57600080fd5b3360008084815260200190815260200160002060020160006101000a81548173ffffffffffffffffffffffffffffffffffffffff021916908373ffffffffffffffffffffffffffffffffffffffff1602179055508060008084815260200190815260200160002060020160146101000a81548167ffffffffffffffff021916908367ffffffffffffffff1602179055505050565b60008263ffffffff161180156104225750600160009054906101000a900463ffffffff1663ffffffff168263ffffffff1611155b151561042d57600080fd5b3373ffffffffffffffffffffffffffffffffffffffff166000808463ffffffff16815260200190815260200160002060020160009054906101000a900473ffffffffffffffffffffffffffffffffffffffff1673ffffffffffffffffffffffffffffffffffffffff161415156104a257600080fd5b8067ffffffffffffffff166000808463ffffffff16815260200190815260200160002060020160149054906101000a900467ffffffffffffffff1667ffffffffffffffff161080156104fd5750428167ffffffffffffffff16105b151561050857600080fd5b60008060008463ffffffff16815260200190815260200160002060020160006101000a81548173ffffffffffffffffffffffffffffffffffffffff021916908373ffffffffffffffffffffffffffffffffffffffff160217905550806000808463ffffffff16815260200190815260200160002060020160146101000a81548167ffffffffffffffff021916908367ffffffffffffffff1602179055505050565b60006020528060005260406000206000915090508060000160009054906101000a900463ffffffff1690806001018054600181600116156101000203166002900480601f01602080910402602001604051908101604052809291908181526020018280546001816001161561010002031660029004801561066b5780601f106106405761010080835404028352916020019161066b565b820191906000526020600020905b81548152906001019060200180831161064e57829003601f168201915b5050505050908060020160009054906101000a900473ffffffffffffffffffffffffffffffffffffffff16908060020160149054906101000a900467ffffffffffffffff16905084565b600160009054906101000a900463ffffffff168156fea165627a7a7230582015b03e294e8d287000a8c1189d7c33e197263d0e7b5dde819f64641caaceec390029",
  "source": "contract SharedAssets {\r\n    struct Asset {\r\n        uint32 id;\r\n        string name;\r\n        address payable hasOut;\r\n        uint64 checkTime;\r\n    }\r\n\r\n    mapping (uint => Asset) public assets;\r\n\r\n    uint32 public assetCount;\r\n\r\n    function addAsset (string memory _name) private {\r\n        assetCount ++;\r\n        assets[assetCount] = Asset(assetCount, _name, address(0), 0);\r\n    }\r\n\r\n    function checkOutAsset (uint _asset, uint64 _time) public {\r\n        // Check asset number\r\n        require(_asset > 0 && _asset <= assetCount);\r\n\r\n        // Ensure that the asset is checked in (i.e. checked out by the null address)\r\n        require(assets[_asset].hasOut == address(0));\r\n\r\n        // Ensure the time makes sense\r\n        require(assets[_asset].checkTime < _time && _time < block.timestamp);\r\n        // Blockchains can't have secure timestamps!  But this works well enough for us...\r\n        // We pass in a time parameter as opposed to just using block.timestamp, under the assumption that the lock (executing this function) knows the time at least slightly better than the blockchain\r\n\r\n        // TODO: Handle payment??!!\r\n\r\n        \r\n        // Actually do the thing\r\n        assets[_asset].hasOut = msg.sender;\r\n        assets[_asset].checkTime = _time;\r\n    }\r\n\r\n    function checkInAsset (uint32 _asset, uint64 _time) public {\r\n        // Check asset number\r\n        require(_asset > 0 && _asset <= assetCount);\r\n\r\n        // Ensure that the asset is checked out by the person checking it in\r\n        require(assets[_asset].hasOut == msg.sender);\r\n\r\n        // ensure time makes sense\r\n        require(assets[_asset].checkTime < _time && _time < block.timestamp);\r\n\r\n        // TODO: payment\r\n\r\n        assets[_asset].hasOut = address(0);\r\n        assets[_asset].checkTime = _time;\r\n    }\r\n\r\n\r\n\r\n    constructor() public {\r\n        //Empty constructor for now\r\n    }\r\n\r\n}\r\n\r\n\r\n",
  "sourcePath": "C:/Users/Troy/Documents/Projects/QHacks2019/QHacks-2019/solidityLearn/contracts/SharedAssets.sol",
  "compiler": {
    "name": "solc",
    "version": "0.5.0+commit.1d4f565a.Emscripten.clang"
  },
  "schemaVersion": "3.0.1",
  "updatedAt": "2019-02-02T21:26:43.989Z",
  "devdoc": {
    "methods": {}
  },
  "userdoc": {
    "methods": {}
  }
}