{
  "contractName": "SharedAssets",
  "abi": [
    {
      "constant": true,
      "inputs": [],
      "name": "assetCount",
      "outputs": [
        {
          "name": "",
          "type": "uint32"
        }
      ],
      "payable": false,
      "stateMutability": "view",
      "type": "function",
      "signature": "0xeafe7a74"
    },
    {
      "constant": true,
      "inputs": [
        {
          "name": "",
          "type": "uint32"
        }
      ],
      "name": "assets",
      "outputs": [
        {
          "name": "id",
          "type": "uint32"
        },
        {
          "name": "name",
          "type": "string"
        },
        {
          "name": "cost",
          "type": "uint256"
        },
        {
          "name": "hasOut",
          "type": "address"
        },
        {
          "name": "checkTime",
          "type": "uint64"
        }
      ],
      "payable": false,
      "stateMutability": "view",
      "type": "function",
      "signature": "0xf8a80dc8"
    },
    {
      "inputs": [],
      "payable": false,
      "stateMutability": "nonpayable",
      "type": "constructor",
      "signature": "constructor"
    },
    {
      "payable": true,
      "stateMutability": "payable",
      "type": "fallback"
    },
    {
      "anonymous": false,
      "inputs": [],
      "name": "changedEvent",
      "type": "event",
      "signature": "0x9867e440db459519e56075792d88d9f393e8031ee5c4fa1f0ad100fbb700d222"
    },
    {
      "constant": false,
      "inputs": [
        {
          "name": "_asset",
          "type": "uint32"
        },
        {
          "name": "_time",
          "type": "uint64"
        }
      ],
      "name": "checkOutAsset",
      "outputs": [],
      "payable": true,
      "stateMutability": "payable",
      "type": "function",
      "signature": "0x5fef77d6"
    },
    {
      "constant": false,
      "inputs": [
        {
          "name": "_asset",
          "type": "uint32"
        },
        {
          "name": "_time",
          "type": "uint64"
        }
      ],
      "name": "checkInAsset",
      "outputs": [],
      "payable": false,
      "stateMutability": "nonpayable",
      "type": "function",
      "signature": "0x84a3e2dc"
    },
    {
      "constant": true,
      "inputs": [],
      "name": "getBalance",
      "outputs": [
        {
          "name": "",
          "type": "uint256"
        }
      ],
      "payable": false,
      "stateMutability": "view",
      "type": "function",
      "signature": "0x12065fe0"
    },
    {
      "constant": false,
      "inputs": [],
      "name": "donate",
      "outputs": [],
      "payable": true,
      "stateMutability": "payable",
      "type": "function",
      "signature": "0xed88c68e"
    }
  ],
  "bytecode": "0x608060405234801561001057600080fd5b506100676040805190810160405280600681526020017f56616375756d0000000000000000000000000000000000000000000000000000815250670de0b6b3a764000061021a640100000000026401000000009004565b6100bd6040805190810160405280600e81526020017f466f6f642050726f636573736f720000000000000000000000000000000000008152506706f05b59d3b2000061021a640100000000026401000000009004565b6101136040805190810160405280600781526020017f4c75676761676500000000000000000000000000000000000000000000000000815250674563918244f4000061021a640100000000026401000000009004565b6101696040805190810160405280601281526020017f496e666c617461626c65204d6174726573730000000000000000000000000000815250671bc16d674ec8000061021a640100000000026401000000009004565b6101bf6040805190810160405280600481526020017f54656e7400000000000000000000000000000000000000000000000000000000815250678ac7230489e8000061021a640100000000026401000000009004565b6102156040805190810160405280600f81526020017f33354c2048696b696e67205061636b0000000000000000000000000000000000815250678ac7230489e8000061021a640100000000026401000000009004565b610457565b6001600081819054906101000a900463ffffffff168092919060010191906101000a81548163ffffffff021916908363ffffffff1602179055505060a060405190810160405280600160009054906101000a900463ffffffff1663ffffffff168152602001838152602001828152602001600073ffffffffffffffffffffffffffffffffffffffff168152602001600067ffffffffffffffff16815250600080600160009054906101000a900463ffffffff1663ffffffff1663ffffffff16815260200190815260200160002060008201518160000160006101000a81548163ffffffff021916908363ffffffff160217905550602082015181600101908051906020019061032a9291906103b2565b506040820151816002015560608201518160030160006101000a81548173ffffffffffffffffffffffffffffffffffffffff021916908373ffffffffffffffffffffffffffffffffffffffff16021790555060808201518160030160146101000a81548167ffffffffffffffff021916908367ffffffffffffffff1602179055509050505050565b828054600181600116156101000203166002900490600052602060002090601f016020900481019282601f106103f357805160ff1916838001178555610421565b82800160010185558215610421579182015b82811115610420578251825591602001919060010190610405565b5b50905061042e9190610432565b5090565b61045491905b80821115610450576000816000905550600101610438565b5090565b90565b610901806104666000396000f3fe608060405260043610610078576000357c0100000000000000000000000000000000000000000000000000000000900463ffffffff16806312065fe01461007a5780635fef77d6146100a557806384a3e2dc146100ed578063eafe7a7414610142578063ed88c68e14610179578063f8a80dc814610183575b005b34801561008657600080fd5b5061008f6102a5565b6040518082815260200191505060405180910390f35b6100eb600480360360408110156100bb57600080fd5b81019080803563ffffffff169060200190929190803567ffffffffffffffff1690602001909291905050506102c4565b005b3480156100f957600080fd5b506101406004803603604081101561011057600080fd5b81019080803563ffffffff169060200190929190803567ffffffffffffffff1690602001909291905050506104f2565b005b34801561014e57600080fd5b506101576107ab565b604051808263ffffffff1663ffffffff16815260200191505060405180910390f35b6101816107c1565b005b34801561018f57600080fd5b506101c2600480360360208110156101a657600080fd5b81019080803563ffffffff1690602001909291905050506107c3565b604051808663ffffffff1663ffffffff168152602001806020018581526020018473ffffffffffffffffffffffffffffffffffffffff1673ffffffffffffffffffffffffffffffffffffffff1681526020018367ffffffffffffffff1667ffffffffffffffff168152602001828103825286818151815260200191508051906020019080838360005b8381101561026657808201518184015260208101905061024b565b50505050905090810190601f1680156102935780820380516001836020036101000a031916815260200191505b50965050505050505060405180910390f35b60003073ffffffffffffffffffffffffffffffffffffffff1631905090565b60008263ffffffff161180156102f85750600160009054906101000a900463ffffffff1663ffffffff168263ffffffff1611155b151561030357600080fd5b600073ffffffffffffffffffffffffffffffffffffffff166000808463ffffffff1663ffffffff16815260200190815260200160002060030160009054906101000a900473ffffffffffffffffffffffffffffffffffffffff1673ffffffffffffffffffffffffffffffffffffffff1614151561037f57600080fd5b8067ffffffffffffffff166000808463ffffffff1663ffffffff16815260200190815260200160002060030160149054906101000a900467ffffffffffffffff1667ffffffffffffffff161080156103e05750428167ffffffffffffffff16105b15156103eb57600080fd5b6000808363ffffffff1663ffffffff168152602001908152602001600020600201543414151561041a57600080fd5b336000808463ffffffff1663ffffffff16815260200190815260200160002060030160006101000a81548173ffffffffffffffffffffffffffffffffffffffff021916908373ffffffffffffffffffffffffffffffffffffffff160217905550806000808463ffffffff1663ffffffff16815260200190815260200160002060030160146101000a81548167ffffffffffffffff021916908367ffffffffffffffff1602179055507f9867e440db459519e56075792d88d9f393e8031ee5c4fa1f0ad100fbb700d22260405160405180910390a15050565b60008263ffffffff161180156105265750600160009054906101000a900463ffffffff1663ffffffff168263ffffffff1611155b151561053157600080fd5b600073ffffffffffffffffffffffffffffffffffffffff166000808463ffffffff1663ffffffff16815260200190815260200160002060030160009054906101000a900473ffffffffffffffffffffffffffffffffffffffff1673ffffffffffffffffffffffffffffffffffffffff16141515156105ae57600080fd5b8067ffffffffffffffff166000808463ffffffff1663ffffffff16815260200190815260200160002060030160149054906101000a900467ffffffffffffffff1667ffffffffffffffff1610801561060f5750428167ffffffffffffffff16105b151561061a57600080fd5b6000808363ffffffff1663ffffffff16815260200190815260200160002060030160009054906101000a900473ffffffffffffffffffffffffffffffffffffffff1673ffffffffffffffffffffffffffffffffffffffff166108fc6009600a6000808763ffffffff1663ffffffff168152602001908152602001600020600201548115156106a457fe5b04029081150290604051600060405180830381858888f193505050501580156106d1573d6000803e3d6000fd5b5060008060008463ffffffff1663ffffffff16815260200190815260200160002060030160006101000a81548173ffffffffffffffffffffffffffffffffffffffff021916908373ffffffffffffffffffffffffffffffffffffffff160217905550806000808463ffffffff1663ffffffff16815260200190815260200160002060030160146101000a81548167ffffffffffffffff021916908367ffffffffffffffff1602179055507f9867e440db459519e56075792d88d9f393e8031ee5c4fa1f0ad100fbb700d22260405160405180910390a15050565b600160009054906101000a900463ffffffff1681565b565b60006020528060005260406000206000915090508060000160009054906101000a900463ffffffff1690806001018054600181600116156101000203166002900480601f0160208091040260200160405190810160405280929190818152602001828054600181600116156101000203166002900480156108855780601f1061085a57610100808354040283529160200191610885565b820191906000526020600020905b81548152906001019060200180831161086857829003601f168201915b5050505050908060020154908060030160009054906101000a900473ffffffffffffffffffffffffffffffffffffffff16908060030160149054906101000a900467ffffffffffffffff1690508556fea165627a7a723058205563f4dab6cde0521b7819dcfb2fcff30bd2607eeb9d7e2825914ad685a1d9970029",
  "source": "pragma solidity ^0.5.0;\r\n\r\ncontract SharedAssets {\r\n    // Asset Struct\r\n    struct Asset {\r\n        uint32 id;\r\n        string name;\r\n        uint cost;\r\n        // Important to have this payable so that we can refund the ether\r\n        address payable hasOut;\r\n        uint64 checkTime;\r\n    }\r\n\r\n    mapping (uint32 => Asset) public assets;\r\n\r\n    uint32 public assetCount;\r\n\r\n    function addAsset (string memory _name, uint _cost) private {\r\n        assetCount ++;\r\n        assets[assetCount] = Asset(assetCount, _name, _cost, address(0), 0);\r\n        //Should set time to the current blocktime or something\r\n    }\r\n\r\n    function checkOutAsset (uint32 _asset, uint64 _time) payable public {\r\n        // Check asset number\r\n        require(_asset > 0 && _asset <= assetCount);\r\n\r\n        // Ensure that the asset is checked in (i.e. checked out by the null address)\r\n        require(assets[_asset].hasOut == address(0));\r\n\r\n        // Ensure the time makes sense\r\n        require(assets[_asset].checkTime < _time && _time < block.timestamp);\r\n        // Blockchains can't have secure timestamps!  But this works well enough for us...\r\n        // We pass in a time parameter as opposed to just using block.timestamp, under the assumption that the lock (executing this function) knows the time at least slightly better than the blockchain\r\n\r\n        // TODO: Handle payment??!!\r\n        require(msg.value == assets[_asset].cost);\r\n\r\n        // Actually do the thing\r\n        assets[_asset].hasOut = msg.sender;\r\n        assets[_asset].checkTime = _time;\r\n\r\n        emit changedEvent();\r\n    }\r\n\r\n    function checkInAsset (uint32 _asset, uint64 _time) public {\r\n        // Check asset number\r\n        require(_asset > 0 && _asset <= assetCount);\r\n\r\n        // Ensure that the asset is checked out by the person checking it in\r\n        require(assets[_asset].hasOut != address(0));\r\n\r\n        // ensure time makes sense\r\n        require(assets[_asset].checkTime < _time && _time < block.timestamp);\r\n\r\n        // TODO: payment\r\n        assets[_asset].hasOut.transfer((assets[_asset].cost / 10) * 9);       // For now this just gives the money back\r\n        // What about gas though...\r\n\r\n        assets[_asset].hasOut = address(0);\r\n        assets[_asset].checkTime = _time;\r\n        \r\n        emit changedEvent();\r\n    }\r\n\r\n    function getBalance() public view returns (uint) {\r\n        return address(this).balance;\r\n    }\r\n\r\n    function donate() payable public{\r\n        // Send the contract money just to be nice\r\n    }\r\n\r\n    function() external payable {\r\n        //Falback\r\n    }\r\n\r\n    event changedEvent (); //Do nothing, just to be listened for\r\n\r\n    constructor() public {\r\n        addAsset(\"Vacuum\", 1 ether);\r\n        addAsset(\"Food Processor\", 0.5 ether);\r\n        addAsset(\"Luggage\", 5 ether);\r\n        addAsset(\"Inflatable Matress\", 2 ether);\r\n        addAsset(\"Tent\", 10 ether);\r\n        addAsset(\"35L Hiking Pack\", 10 ether);\r\n    }\r\n\r\n}\r\n\r\n// truffle migrate --reset\r\n// npm run dev",
  "sourcePath": "C:/Users/Troy/Documents/Projects/QHacks2019/QHacks-2019/dapp/contracts/SharedAssets.sol",
  "compiler": {
    "name": "solc",
    "version": "0.5.0+commit.1d4f565a.Emscripten.clang"
  },
  "schemaVersion": "3.0.1",
  "updatedAt": "2019-02-03T04:00:24.539Z",
  "devdoc": {
    "methods": {}
  },
  "userdoc": {
    "methods": {}
  }
}